:020000040000FA
:10000000E04E00205903000081030000A504000019
:100010008503000087030000890300000000000042
:100020000000000000000000000000008B03000042
:100030008D03000000000000EF0300003D130000EE
:100040009303000093030000930300009303000058
:100050009303000093030000930300009303000048
:100060009303000093030000930300009303000038
:100070009303000093030000930300009303000028
:1000800093030000890D000093030000ED0D0000B4
:100090009303000093030000930300009303000008
:1000A00093030000930300009303000093030000F8
:1000B00093030000930300009303000093030000E8
:1000C000E114000093030000930300009303000079
:1000D00093030000930300009303000093030000C8
:1000E00093030000930300009303000093030000B8
:1000F00093030000930300009303000093030000A8
:100100009303000093030000930300009303000097
:100110009303000093030000930300009303000087
:100120009303000093030000930300009303000077
:100130009303000093030000930300009303000067
:100140009303000093030000930300009303000057
:100150009303000093030000930300009303000047
:100160009303000093030000930300009303000037
:100170009303000093030000930300009303000027
:100180009303000093030000930300009303000017
:100190009303000093030000930300009303000007
:1001A00093030000930300009303000093030000F7
:1001B00093030000930300009303000093030000E7
:1001C00093030000930300009303000093030000D7
:1001D00093030000930300009303000093030000C7
:1001E0009303000093030000930300002D1500000B
:1001F00093030000930300009303000093030000A7
:100200009303000093030000930300007D0E0000A1
:100210009303000093030000930300009303000086
:100220009303000093030000930300009303000076
:100230009303000093030000930300009303000066
:100240009303000093030000930300009303000056
:100250009303000093030000930300009303000046
:100260009303000093030000930300009303000036
:10027000930300009303000000F002F800F05CF824
:100280000AA090E8000C82448344AAF10107DA45F1
:1002900001D100F051F8AFF2090EBAE80F0013F0E7
:1002A000010F18BFFB1A43F001031847103C000070
:1002B000303C00000A444FF0000C10F8013B13F0F2
:1002C000070408BF10F8014B1D1108BF10F8015BAF
:1002D000641E05D010F8016B641E01F8016BF9D1A2
:1002E00013F0080F1EBF10F8014BAD1C0C1B09D1F9
:1002F0006D1E58BF01F801CBFAD505E014F8016B6B
:1003000001F8016B6D1EF9D59142D6D370470000FC
:100310000023002400250026103A28BF78C1FBD80E
:10032000520728BF30C148BF0B6070471FB503F0AC
:100330000DFB1FBD10B510BD00F04AF91146FFF7C7
:10034000F5FF01F043FE00F068F903B4FFF7F2FF98
:1003500003BC00F069F9000011484FF05901016039
:100360004FF0160101604FF0880101600D4A45F61B
:10037000A5211160002101600B4880470B48004710
:10038000FEE7FEE7FEE7FEE7FEE7FEE7FEE7FEE745
:10039000FEE7FEE706480749074A084B704700009A
:1003A0000001004024000040B91300007902000061
:1003B000E0450020E04E0020E0460020E04600201E
:1003C000EFF3108072B6704780F3108870473A4A96
:1003D0001368012B04D04FF001031360374A1060FB
:1003E000374A116037484FF0805101607047EFF392
:1003F000108272B63048016821B34FF000010160ED
:100400002E48016891B1EFF309811EF0100F08BF6B
:1004100021ED108B21E9F00F4FF000041EF0100FBA
:1004200008BF012441F8044D0068016024490968AF
:10043000096808C9B1E8F00F002B18BFB1EC108BA8
:1004400081F3098882F310884EF0100E002B18BF3C
:100450002EF0100E4EF0040E704719490860EFF3AD
:10046000148222F0040282F3148814494FF0000031
:10047000086011494FF00100086013484FF47F01F4
:10048000D0F8002041EA020101600E484FF080518F
:1004900001600E480068006800BF80F3088862B6FB
:1004A000704700BFEFF3098000B501F051FF5DF820
:1004B00004EB4EF0040E7047840200207C02002002
:1004C0008002002004ED00E020ED00E008ED00E0F7
:1004D000032A40F2318010F0030C00F0158011F86F
:1004E000013BBCF1020F624498BF11F801CB00F848
:1004F000013B38BF11F8013BA2F1040298BF00F89C
:1005000001CB38BF00F8013B11F0030300F0268057
:10051000083AC0F0098051F8043B51F804CB40F888
:10052000043B40F804CBF3E7121D5CBF51F8043BD9
:1005300040F8043BAFF30080D20724BF11F8013B21
:1005400011F801CB48BF11F8012B24BF00F8013B83
:1005500000F801CB48BF00F8012B704710B5203AD6
:10056000C0F00B80B1E81850203AA0E81850B1E86C
:100570001850A0E81850BFF4F5AF5FEA027C24BF22
:10058000B1E81850A0E8185044BF18C918C0BDE819
:1005900010405FEA827C24BF51F8043B40F8043BE2
:1005A00008BF7047D20728BF31F8023B48BF11F897
:1005B000012B28BF20F8023B48BF00F8012B7047F1
:1005C0007047704770470000004870478045002022
:1005D0007546FFF7F9FFAE4605006946534620F021
:1005E0000700854618B020B5FFF7D4FEBDE82040CF
:1005F0004FF000064FF000074FF000084FF0000BDF
:1006000021F00701AC46ACE8C009ACE8C009ACE891
:10061000C009ACE8C0098D4670470446AFF30080BE
:100620002046FFF792FE000003494FF01800ABBED2
:10063000704700000900000026000200704700001B
:1006400010B504214EF20F6000F072FD00214EF251
:10065000186000F06DFD002144F2B63000F068FD36
:1006600000214FF4874000F08FFD002144F28130DB
:1006700000F08AFD002144F2823000F085FD002167
:1006800044F2833000F080FD002144F2843000F019
:100690007BFD002144F2853000F076FD002144F21C
:1006A000863000F071FD002144F2873000F06CFDCF
:1006B000002144F2883000F067FD002144F28930C7
:1006C00000F062FD002144F28A3000F05DFD00215F
:1006D00044F28B3000F058FD002144F28C3000F0E1
:1006E00053FD002144F28D3000F04EFD002144F214
:1006F000913000F049FD002144F2923000F044FDB9
:10070000002144F2933000F03FFD002144F2943088
:1007100000F03AFD002144F2953000F035FD002153
:1007200044F2963000F030FD00214EF2146000F0EB
:10073000FFFC00214EF2156000F0FAFC00214EF2A1
:10074000166000F0F5FCA7214EF2116000F0F0FCFD
:10075000A7214EF2126000F0EBFCA7214EF21360CD
:1007600000F0E6FC40F688614EF2106000F0E0FC1C
:1007700000214EF2017000F0DBFC40F2FF114EF25E
:100780000E6000F0D5FC00214FF4674000F0AAFC99
:10079000714944F2AC3000F0F7FC172144F2AB3061
:1007A00000F0F2FC6C4944F2AA3000F0EDFC172195
:1007B00044F2A93000F0E8FC674944F2AE3000F0A2
:1007C000E3FC172144F2AD3000F0DEFC08214EF2CC
:1007D000027000F087FC40F25B114EF20C6000F0FA
:1007E000A7FC20214EF20A5000F0CEFC00214EF270
:1007F0000B5000F0C9FC594944F2AC3000F0C4FC85
:10080000022144F2AB3000F0BFFC534944F2AA305D
:1008100000F0BAFC172144F2A93000F0B5FC4E49B3
:1008200044F2AE3000F0B0FC172144F2AD3000F0DD
:10083000ABFC38214EF2027000F054FC40F25B1128
:100840004EF20C6000F074FC20214EF20A5000F0D1
:100850009BFC4FF6FF714EF20B5000F095FC1021FF
:100860004EF2037000F090FC04214FF4674000F05A
:1008700039FC3B4944F2B33000F086FC394944F27C
:10088000813000F081FC374944F2833000F07CFC79
:10089000344944F2853000F077FC334944F2883023
:1008A00000F072FC304944F28A3000F06DFC2E49B1
:1008B00044F28C3000F068FC04214EF20F6000F02E
:1008C00037FC2A494FF4874000F05EFC274944F288
:1008D000823000F059FC254944F2843000F054FC89
:1008E0006FF07F0144F2873000F04EFC6FF07F0123
:1008F00044F2893000F048FC6FF07F0144F28B3005
:1009000000F042FC1A4944F2913000F03DFC1849D5
:1009100044F2933000F038FC154944F2953000F071
:1009200033FC1C214EF2146000F002FC1C214EF23C
:10093000156000F0FDFB1C214EF2166000F0F8FB84
:1009400040F6C8014EF2106000F0F2FB0A214EF2B0
:10095000116000F0EDFB10BD61BE7B00D6B9C00098
:1009600074310D00A3B0F8FF60EEFFFF1FD789FFC1
:100970004C49EBFF10B50122D1020B4800F069FA97
:1009800001229102084800F064FA0120074908603A
:100990004FF000004FF04021C1F828094FF47A7061
:1009A00000F0DAF910BD0000004100402C49004081
:1009B00010B501225102154800F04BFA01201449EC
:1009C00008604FF04021C1F8F808124908604FF064
:1009D000C80000F0C1F900200D4908600E49086008
:1009E0004FF0C80000F0B8F90120094908604FF045
:1009F0004021C1F8F8084FF0640000F0ADF9002084
:100A00004FF04021C1F8FC0810BD0000004100403B
:100A100024490040FC480040F848004010B500F070
:100A20000BFB00F009FB00F007FB00F005FB00F0FA
:100A300003FB00F001FB00F0FFFA00214EF601403D
:100A400000F050FB10BD000010B5FFF7B1FFFFF73D
:100A500091FFFFF7E3FF4EF2035000F0F5FA0F4964
:100A60000860084601684EF2035000F08DFB0B4809
:100A7000006800F40040B0F5004F02D16B20074938
:100A80000860FFF7DDFD01214EF2282000F050FB49
:100A90004FF47A7000F060F910BD000044000020AF
:100AA0000849032202EA907251F8221000F01F0355
:100AB00001229A401143034A032303EA907342F848
:100AC00023107047040200400449096841EA00010C
:100AD0004FF08042C2F80012704700000002004050
:100AE00010B500F03BFC0148006810BD100000206C
:100AF00070B500211648066816F4801F01D000204A
:100B000070BD16F4002F01D0124A00E0124AC6F35D
:100B1000813333B1012B06D0022B05D0032B07D133
:100B200004E0012304E000BF022301E0042300BF2E
:100B300000BFC6F30800851CC6F34420841C02FBDA
:100B400005F0B0FBF4F0B0FBF3F10846D8E7000085
:100B50004002004000805101001BB70070B5044600
:100B60000D460A48006820F00F0040EA05004FF0EB
:100B70008041C1F820020648006820F0070040EAE2
:100B80000400C1F8100200F0E9FB70BD2002004033
:100B900010020040F0B5002300240025C0F3872692
:100BA0007EB1124EC0F3814706EB87052B68C0F378
:100BB0008726C0F34417BE4023EA060646EA02032E
:100BC0002B60C0F3426686B1084E103EC0F3017739
:100BD00006EB87042368C0F34266C0F30457BE40A7
:100BE00023EA060646EA01032360F0BD2002004026
:100BF00002464FF4D83105E0081EA1F1010101DCE5
:100C0000002070470348006800EA02009042F3D1D8
:100C10000120F6E75002004010B500224FF40061B9
:100C20000A4800F016F900224FF48061074800F0EE
:100C300010F900224FF40071044800F00AF9012273
:100C40001102024800F005F910BD000040400040CC
:100C500008B51548FFF724FF4FF08040406C40F086
:100C600080504FF0804148640846806C40F011008D
:100C700088640E4B00930823042200210C4800F0E6
:100C8000C1FA0B4800F0B9FA0948006840F00100C9
:100C90000749086001221103064800F0DAF8012034
:100CA0000549086008BD00000D005052801A06007A
:100CB0000010064080400040B048004010B50122BE
:100CC000D103094800F0C5F801229103064800F05D
:100CD000C0F801221102044800F0BBF801225102C1
:100CE000014800F0B6F810BDC040004010B5002229
:100CF0000821164800F0ADF801220221134800F047
:100D00009BF801220321114800F096F800BF132040
:100D1000002805DA052000010D494A17885404E02F
:100D2000052000010B491322885400BF00BF132087
:100D3000012101FA00F0132149094FF0E02202EBF2
:100D40008101C1F8000100BF10BD0000C04000409B
:100D500018ED00E000E400E04FF47A71484300BF72
:100D60000200A0F10100FBD170474FF47A7110FB33
:100D700001F100BF0A00A1F10101FBD1704772B679
:100D8000704762B6704700004FF04020006E10F0D0
:100D9000100F07D010204FF04021086601201249A3
:100DA00008701FE04FF04020006E10F0200F07D0B9
:100DB00020204FF04021086601200B49087011E007
:100DC0004FF04020006E10F4804F05D04FF480406B
:100DD0004FF04021086605E04FF04020006E4FF0D4
:100DE00040210866704700004C0000201048006851
:100DF00010F0040F07D004200D4908604FF00100E7
:100E00000C49087012E00A48006810F0080F07D07B
:100E10000820074908604FF001000649087005E006
:100E2000034800684FF04021C1F8E000704700001F
:100E3000E04000404C00002010B58469130E8B4048
:100E40001C438461C46922F07F438B401C43C4610E
:100E500010BD70B500230EE001249C400C4209D067
:100E600004685E000325B540AC435D0002FA05F559
:100E70002C4304605B1C102BEED370BD10B50948E9
:100E8000C468406910F0010F03D0064800F00EF866
:100E900006E00548006818B12046034909688847FC
:100EA00010BD00000030084070010020416941F091
:100EB000010141617047000010B501224021044842
:100EC000FFF7C7FF012280210148FFF7C2FF10BDD5
:100ED000404100401248007810F0010F1FD0114827
:100EE000007870B901200F49087000200E49086091
:100EF0004FF001004FF04021C1F860080B49888590
:100F00000DE00020074908700120074908604FF0F4
:100F100000004FF04021C1F86008044988857047FF
:100F20008D0200208C020020FC4800405803002065
:100F3000FF2000BF0849096811F0010F01D100F03E
:100F4000FE0080F0FF000549097841400140044A55
:100F500011700249087070476C4800408E020020F2
:100F60008D02002010B5FFF7A7FF302000F032F807
:100F70000C2000F02FF8012000F02CF80520FFF7DE
:100F8000F4FE022000F026F8062000F023F810BD41
:100F9000002117E000220D4B1A6010F0800F04D0E2
:100FA000012203F104031A6002E00022084B1A60D8
:100FB0000122064B1A604FEA40624FEA126001F1CB
:100FC0000102D1B20829E5DB704700005849004012
:100FD0005C49004010B50446F820FFF7D9FF04F043
:100FE000F000FFF7D5FFF02101EA0410FFF7D0FF72
:100FF0000120FFF7BAFE10BD00F01F020121914051
:1010000042094FF0E02303EB8202C2F8001170475F
:1010100010B5002807DA0A07130E054A00F00F047E
:10102000241F135503E00A07130E024A135410BD80
:1010300018ED00E000E400E04FF47A7000BF01001A
:10104000A0F10100FBD17047FEB504460020224903
:1010500008604FF001008DF804004FEA14208DF86D
:101060000500E0B28DF806004FF0000507E001A88A
:10107000405D1A490862FFF7DFFF681CC5B2032D07
:10108000F5DB164800F0B4F81448006B14490870FA
:1010900000250BE0002011490862FFF7CDFF0F4843
:1010A000006BC0B20DF80500681CC5B2042DF1DB61
:1010B0009DF8000000069DF8011000EB01409DF82E
:1010C000021000EB01209DF8031046180120024990
:1010D00008603046FEBD0000B048004000100640E9
:1010E0003C0000203CB503460D4600200E49086038
:1010F0008DF800004FEA13208DF80100D8B28DF86A
:1011000002008DF803504FF0000407E01DF80400C2
:1011100006490862FFF790FF601CC4B2042CF5DB9F
:101120000120014908603CBDB04800400010064065
:101130003CB503460D460020114908608DF80000BB
:101140004FEA13208DF80100D8B28DF802004FEA63
:1011500015208DF80300E8B28DF804004FF000046C
:1011600007E01DF8040007490862FFF765FF601CEF
:10117000C4B2052CF5DB0120014908603CBD00002C
:10118000B0480040001006403CB503460D46002024
:10119000154908608DF800004FEA13208DF8010012
:1011A000D8B28DF802004FEA15608DF803004FEABF
:1011B00015408DF804004FEA15208DF80500E8B2BF
:1011C0008DF806004FF0000407E01DF80400074901
:1011D0000862FFF731FF601CC4B2072CF5DB012069
:1011E000014908603CBD0000B048004000100640C6
:1011F000016941F0010101617047816821F0080136
:10120000816070472DE9F04704460D4616461F469B
:10121000DDF82090202F00D1002745EA0720304339
:101220002060FFF75DFC80464FF6FF7AB9F1000FB2
:101230000DD0B8FBF9FABAF5803F01D34FF6FF7A2B
:1012400060686FF30F0040EA0A00606001E0002070
:1012500060600AF10100B8FBF0F0BDE8F08710B55E
:10126000FFF780FEFFF72AFDFFF7F2FCFFF73EFDD8
:10127000FFF7D2FC10BD000010B500F027F80120E8
:10128000FFF722FC0120FFF7B3FC00210846FFF71F
:1012900065FC0D48006840F480304FF08041C1F893
:1012A000400244F21A00084908604FF00400FFF7BA
:1012B0009FFC00210220FFF751FC00F04FF84FF493
:1012C0007A7000F019F810BD400200400CE059207F
:1012D000084908604FF016004FF08041C1F8000146
:1012E0004FF0880003490860024800680128EED1E9
:1012F00070470000000100400D49096841434FF06C
:10130000E0225161002191610721116100BF511755
:10131000002905DA01210901064A0B23D15404E012
:1013200001210901044A5317D15400BF704700003E
:101330001400002018ED00E000E400E010B50648BD
:101340000068401C0449086001F04AF801F0A0FF61
:1013500001F05EF810BD00000400002070B51049D7
:10136000096801F00705022D03D00E4951F8250048
:1013700001E0FFF7BDFB0C49096801F00F0101F125
:101380000104B0FBF4F1094A116011460968084AEA
:1013900011444FEA4202B1FBF2F1064A116070BDFE
:1013A0001002004018000020200200401000002021
:1013B00020A107001400002000200449096841F41E
:1013C00070014FF0E022C2F8881D704788ED00E000
:1013D0000021016041617047016841F000510160E6
:1013E0007047000030B589B004462022194901A891
:1013F000FFF7B4F81848844204D118480068C0F3D5
:10140000022514E014482030844204D113480068B7
:10141000C0F302350BE01248844204D10F48006843
:10142000C0F3024503E00D480068C0F30255022DE9
:101430000CD10C48006810F0400F04D00A48006836
:10144000400809B030BD08480068FAE701A850F824
:101450002500F6E77839000000000540140200403E
:101460000010054010020040100000202DE9F04758
:1014700004460D4616462046FFF7B4FF81464FF05E
:1014800000080027B6EB590F02D94FF0020815E00B
:10149000B9F1806F03D307274FEAD9090CE0B9F1FE
:1014A000007F03D303274FEA990905E0B9F1807F54
:1014B00002D301274FEA5909B9FBF6F845EA0700BC
:1014C0002060C4F80480781C08FB00F0B9FBF0F041
:1014D000BDE8F087016821F080410160704700009D
:1014E00010B50E48007880B10D480068401C0C49CA
:1014F0000860084600680B490988884208DB00F04C
:1015000049FE00200649086002E000200449086006
:1015100000BF01200449886000BF10BD7400002096
:10152000780000207C0000200000054010B507482E
:10153000C46914F4807F02D000F034FE04E014F497
:10154000007F01D000F036FE10BD000000300740E3
:10155000416821F440514160704742688A434260CB
:10156000704742680A434260704700002DE9FF411E
:1015700004460D461B4968464EC94EC0FFF7B8FAEF
:10158000019019480068C0F301664FF00000206325
:101590004FF00300E0604FF00000A0605DF82610FF
:1015A0004FF08040D0F82002C0F3032000F101008A
:1015B000B1FBF0F89DB108EB5500B0FBF5F0871ECC
:1015C000B7F5803F08D308EBC500B0FBF5F002216A
:1015D000C1EB1010606202E047F040506062BDE86D
:1015E000FF8100005839000014020040014609B98B
:1015F0000020704711F0FF0F04D0C8B20D4A105CF4
:10160000401CF6E711F47F4F05D00A48C1F30722CA
:10161000805C0930EDE711F47F0F05D00548C1F378
:101620000742805C1130E4E7024800EB116000786B
:101630001930DEE7983D000070B5044624B900205B
:1016400000BF0028FDD000BFA16AE069884205D92B
:10165000A18DA06A0844E169884206D2FEF7B0FE77
:10166000054600BF002DFDD100E000BF70BD0000A9
:101670002DE9FC5F04468B4615461E460CAF97E8E5
:10168000800704F114004060006000BF25626662BC
:10169000A762A4F82C80A28D2321A06A01F080F813
:1016A000B4F82CC0A36A63441A1F144BD4E9080190
:1016B00000F060FEE061B9F1200F04DB002000BF04
:1016C0000028FDD000BF84F8369084F83590C4F827
:1016D00044A0C4F848A00020206384F83400A06728
:1016E000E0670023009301932346054A214604F155
:1016F0004C0001F06CFE0020BDE8FC9F192F00009B
:10170000E33100002DE9F04704460D4616461F461A
:10171000DDF8208084F80980607A20F00100607292
:10172000E56126620020A0626762814607E004F15D
:10173000140101EBC90000F0CDFE09F10109B9F176
:10174000010FF4DBBDE8F08710B500220DE000F1D9
:10175000140303EBC201D1E900436360D1E9003413
:1017600023604960096000BF521C012AEFDB10BDF5
:1017700010B50246002009E012F8014B84EA20234C
:10178000054C34F8133083EA002398B20B1EA1F104
:101790000104A1B2F0DC10BD983B00002DE9F0413E
:1017A00004460D460027207804283ED160780228A0
:1017B00006D0042812D005281AD006282DD122E000
:1017C00008202070022060700020A0708920E07046
:1017D000002020716071062028801EE00620207005
:1017E000042060700020A070E0700420288014E0C5
:1017F00006202070052060700320A070E820E070B3
:101800000420288009E00620207060705520A07018
:10181000F020E0700420288000BF00BF00262EB119
:10182000304600F0A5FC074600E003273846BDE837
:10183000F081000010B5002407480078012807D186
:10184000054894300068804700200349087000E094
:101850000624204610BD0000B00000202DE9F0470E
:1018600004460D464FF0000A2888052836D16078D6
:101870000602A0780643701C86B2E078070227793A
:10188000012F28DB7D2F26DCA146002028800320A5
:1018900089F800004C4609F101092888401C28807D
:1018A0007806000E09F8010B2888401C28800023C8
:1018B0003A463146484600F0EBFA8046B8F1000F50
:1018C00004D0404600F054FC824609E0288800EB32
:1018D0004700288004E04FF0030A01E04FF0030ABC
:1018E0005046BDE8F0872DE9FC5F04460D46002018
:1018F000009028880A2861DB60780602A0780643F9
:10190000701C86B2E07807022079074360794FEABD
:101910000028A07940EA080808F101001FFA80F8C1
:10192000E0794FEA0029207A40EA0909607A0190BB
:10193000012F41DB7D2F3FDCB9F1010F3CDBB9F119
:10194000790F39DC4FEA49010198814234D10123F2
:101950004A46414604F10A0000F09AFA8346BBF178
:10196000000F21D1A2460020288017208AF800000D
:1019700054460AF1010A2888401C28807806000E87
:101980000AF8010B2888401C288000233A4631467B
:10199000504600F07DFA8346BBF1000F04D1288841
:1019A000022101FB07002880BBF1000F06D058463A
:1019B00000F0DEFB009001E0032000900098BDE8FD
:1019C000FC9F000070B504460D4606480288064993
:1019D000601CFEF77DFD03480088401C2880002025
:1019E00070BD0000AC000020C01E00202DE9F041B9
:1019F00004460D464FF000082888052812D160786B
:101A00000602A0780643701C86B201231A463146AE
:101A1000E01C00F03DFA074637B1384600F0A8FB5D
:101A2000804601E04FF003084046BDE8F081000029
:101A30002DE9F04704460D4616461F46DDF8208086
:101A40004FF00009FF2D03D0002D01DBF72D02DD43
:101A50004FF0020938E01E4805700CBB1D481C49B8
:101A6000C91D08601C48091D08601C480839086029
:101A70001B480C3108600020091D086019481A49EC
:101A800008601A481A4908601A481B49086043460A
:101A90003A4631460E48007800F034F9814602E0BB
:101AA0004FF0020900BF00BFB9F1000F0CD101F0E7
:101AB0000BFE10B94FF0030906E00548401C047006
:101AC000012003498D3908704846BDE8F0870000C1
:101AD0003D010020551E0000791E0000C91D0000B8
:101AE0005D1D00001538000054010020E1380000A1
:101AF00058010020A13800005C01002038B5002505
:101B00007F48007808B1062038BD684601F0CCFD5A
:101B100001287ED19DF80000052804D2DFE800F0FE
:101B200003048CEC2C00E8E0754A8A32911F081DF2
:101B300000F114031B68984705467DB9704888304A
:101B400000786F498D310978884204D06C4888301C
:101B50000078FF2802D1022001F0BEFD082D0AD135
:101B600067488830007866498D310978884202D10B
:101B7000042001F0B1FDC0E06148843000680078C5
:101B80005F49893108700120C91C087000241DE0DC
:101B90005B48001D10F8340000B919E05848001DDA
:101BA00010F8340056498931097888420DD15448DB
:101BB000001D00EBC40052498A314268881F00684A
:101BC00090474F498C31087002E0641C102CDFDB19
:101BD00000BF4B4888300078FF282CD048488C3014
:101BE0000078F0B1002046498A310880481E00780C
:101BF00040F0800142488A3002880088401C404BF7
:101C00008A331880981F00688154981C0178801EC0
:101C100000E073E002880088401C1880981F00686C
:101C2000815437488A300288801F01680930007863
:101C300000F0D4F9C5B260E0314884300068007823
:101C40002F49893108700120C91C087000241DE04B
:101C50002B48001D10F8340000B919E02848001D79
:101C600010F8340026498931097888420DD124487A
:101C7000001D00EBC40022498A314268881F0068B9
:101C800090471F498C31087002E0641C102CDFDB88
:101C900000BF1B4888300078FF282CD018488C30B3
:101CA0000078E0B1002016498A310880481E00788B
:101CB00040F0800112488A3002880088401C104B96
:101CC0008A331880981F00688154981C0178801E00
:101CD00002880088401C1880981F006881540848BA
:101CE0008A300288801F016809300078044B9033E5
:101CF0001B689847054600E000BF00BF002003E7CF
:101D0000B00000202DE9F04781460C4615461E46DE
:101D10000027FFF734F8334608222946204601F011
:101D2000EDFC012801D0032710E0B5F5964F02D94C
:101D30004FF0230803E068000749B1FBF0F81FFAF1
:101D400088F001F03DFD012800D00327FFF719F8C6
:101D50003846BDE8F0870000A07F17002DE9F0416C
:101D600004460D4616460027FFF709F81448008878
:101D7000042810DB12480188124801F021FC50B9F8
:101D80001048007820700E480088C01E30800D4832
:101D9000401C28600FE00A48008804280ADB094834
:101DA000007920700648008830800648801D286031
:101DB000082700E00527FEF7E4FF3846BDE8F0817C
:101DC000A6000020C01D00202DE9F04104460D466C
:101DD00016460027FEF7D3FF1C48007801282FD1B4
:101DE000681E1A49C91C08600120091D0880081FC7
:101DF000006804700846008830440880084601885E
:101E0000001F006801F0DCFB8046104AD21D1088DC
:101E1000421C0E4BDB1D1A800D4A02F800804FEA6F
:101E200028211A461088421C1A80094A11540120A0
:101E3000A3F1080108700121002001F0DDFB00E0A2
:101E40000527FEF79EFF3846BDE8F0819D00002083
:101E5000C01D002010B5FEF792FF00200549087054
:101E60000021012001F0C8FB01F0F4FBFEF789FF1F
:101E700010BD00009D00002010B5FEF780FF00217E
:101E8000084601F0B9FB01F0D1FBFEF77AFF10BD67
:101E90002DE9F0470446002501F004FC98B101F05B
:101EA0008DFB00EBC00C0CEB0010DFF89CC00CEBC2
:101EB000C0074FF001084FF064092448008800F083
:101EC000FF0A012308E0224F4FF001084FF0640998
:101ED0002048008800F0FF0A414530DB881808EBF5
:101EE000090C60452BDCA1EB0A0613B1012B25D1AF
:101EF0000FE00BE037F81600001204F8010B37F87A
:101F0000160004F8010B761C501E82B2002AF1DC88
:101F100014E010E014F801CB4FEA0C2027F816006B
:101F200014F8010B37F816C040EA0C0027F8160029
:101F3000761C501E82B2002AECDC00BF00E00125B6
:101F40002846BDE8F0870000401100208C000020EA
:101F500058030020840000207FB504460D464FF44E
:101F6000806106480023064A8DE8330005A1074832
:101F700001F070F8054801F0E7F87FBD803C0020D3
:101F80006D2E0000446F6F72000000008040002042
:101F90007FB504460D464FF4806106480023064A8B
:101FA0008DE8330005A1084801F054F8064801F017
:101FB000CBF87FBD00410020092F00005273343858
:101FC00035636F6D6D0000000045002010B5FEF711
:101FD000F7F901F0D3FA002010BD00002DE9F0411F
:101FE00004460D4616464FF00008FEF7C8FE26B917
:101FF000FEF7C7FE4046BDE8F0812F480078012873
:1020000053D12E482C49C91C0860FF20096808706C
:1020100055202949C91C0968487005202649C91C52
:102020000968887000202449C91C0968C8702248C2
:10203000C01C0068047100201F49C91C0968487150
:1020400006201D49C91D0880091F09681A4AD21DAA
:102050001288881832462946FEF73AFA1648C01DFB
:10206000008830441449C91D088008460188001FB3
:102070000068FFF77DFB07463A120F49C91D088823
:10208000411C0D4BDB1D19800C490A541A4610885F
:10209000421C1A800A4617540120A3F10801087057
:1020A0000121002001F0A8FA01E04FF00508FEF739
:1020B00068FE40469FE700009D000020C01D0020F4
:1020C00030B52A4B1B68984204D2002300BF002B76
:1020D000FDD000BF254B1B1D1B68984204D3002375
:1020E00000BF002BFDD000BF438823B1002300BFF9
:1020F000002BFDD000BF1D4C43682468191988428D
:1021000018D04B88B3B9194B1B1D1B68994211D0CD
:10211000164B08331B688B4202D1144B08331860EE
:102120004B684360114B1B68C31A104D4C682D68F7
:102130002C44A3600D4C836824681A19824213D082
:1021400053888BB9094B08331B68834202D1074B74
:1021500008331A6043685360044B1B68D31A034D5D
:1021600044682D682C44A36030BD0000900100201D
:10217000014621B1012904D0072906D103E000203E
:1021800005E0022003E0062001E0042000BF00BFBC
:102190007047000010B502480068804710BD00007D
:1021A0005C01002010B502480068804710BD0000A7
:1021B0005401002010B502480068804710BD00009F
:1021C000580100201CB514230822CDE90023130276
:1021D0000022094909A000F016FE044614B1204669
:1021E00000F0B2FF05210A20FFF7D2FE05210D20E5
:1021F000FFF7B2FE00201CBDC1230000696E6974A8
:10220000000000002DE9F0410E4E756813E00C202F
:102210002C1AD4F82480B8F1000F0BD0E08A10F00B
:10222000100F07D12046C04707461FB9E08A40F08B
:102230001000E0822D68301D8542E8D10020BDE805
:10224000F08100001802002070B5044600BFFEF7C0
:10225000B7F8064600F0D6F820B1002000BF0028ED
:10226000FDD000BF3046FEF7AFF800BF04B970BD27
:1022700014F0070F04D0002000BF0028FDD000BFDD
:102280002D480068844204D32B48001D0068844216
:1022900004D3002000BF0028FDD000BF00BF2648A7
:1022A000001F006820B120462349091F096888479C
:1022B00000BF21480068844204D31F48001D006805
:1022C000844202D300BF00BFD1E7A4F1100500BFD4
:1022D00000BF4FF0FF31194800F03EFC688820B97C
:1022E000002000BF0028FDD000BF2888B0F5F55FB2
:1022F00004D0002000BF0028FDD000BF002068806F
:1023000028800D4808300068854202D20A4808300B
:102310000560094968680968691A401A0649103158
:102320000968081A0449103108602846FFF7C8FEFA
:10233000024800F0E7FB9AE79001002060230020AC
:1023400010B5FEF799FFFEF78AFFFEF77DFB10BD83
:1023500070B504460648006838B12046044909684B
:102360008847054605B970BD00BF00BFFEE7000005
:1023700078020020F0B50446101D20F00700443814
:102380000546002603E00D4F45F82670761C112EF9
:10239000F9D369624FF0000CC5F828C0C5F82CC00D
:1023A000C5F830C0C5F834C0AB63EC634FF0807C37
:1023B000C5F840C000272F60F0BD0000EFBEADDEC5
:1023C00038B50546002300934FF4165300220A2126
:1023D0001046FFF72DFB0446FFF72CFA044638BDE4
:1023E00010B500BF00BFFDF7EBFF044604480078BE
:1023F000401C034908702046FDF7E6FF10BD0000B1
:10240000840100200148007870470000840100200A
:1024100010B500BF00BFFDF7D3FF044604480078A5
:10242000401E034908702046FDF7CEFF10BD000096
:102430008401002070B50446142021680D1A00BFE5
:1024400000BF284600F02EFE002070BD2DE9F041AF
:1024500004460D461646284600F0A2FE16B1012E8F
:1024600026D105E005F11401204600F04BF81FE0ED
:10247000D4F8008011E01420A8EB000795F835008F
:1024800097F83510884206DA05F1140107F11400B7
:1024900000F038F803E0D8F80080A045EBD100BF89
:1024A000A04504D105F11401204600F02BF800BF2F
:1024B00000BF0020BDE8F08110B5044604F114000F
:1024C00000F002F8002010BD4060006070474060DE
:1024D00000607047406000607047026851600268A9
:1024E0000A600160486070470268516002680A60D3
:1024F0000160486070470268516002680A600160CC
:10250000486070474268116042684A6041600860F4
:10251000704701460868884201D1012070470020B9
:10252000FCE701460868884201D10120704700207D
:10253000FCE701460868884201D10120704700206D
:10254000FCE7D0E900215160D0E900121160406041
:1025500000607047D0E900215160D0E9001211609D
:1025600040600060704700002DE9F047044600BF5E
:10257000FDF726FF8146FFF745FF20B1002000BF91
:102580000028FDD000BF4846FDF71EFF00BF14B96C
:102590000020BDE8F087E01D20F00700A04201D038
:1025A00000BF01E000BF00BFE01D20F007047A4833
:1025B0000068844203D900BF00BF0020E9E7102C67
:1025C00000D210244FF0FF31744800F0C5FA724871
:1025D000001F006870490C390968451AD0E06E4840
:1025E0000C3800684719788800287ED105F1100062
:1025F0007968081AA04278D305F110007968091AA1
:1026000004F12000814235D305F11000061962481B
:102610000C38006800EB06080020A8F80200786873
:10262000C8F80400C8F808507E60012078805A4835
:10263000D8F8041000681030814206D056490C3991
:10264000D8F804000968084486605348001D0168F2
:1026500004F1100008445049091D0860081D006875
:102660000968884220D24C48001D00684A49083158
:10267000086019E00120788047490C3978680968BA
:10268000791A401A4449091D096808444249091D3C
:102690000860081D00680968884205D23E48001D90
:1026A00000683D49083108604FF4F55038803A48D9
:1026B000001F006887422CD10AE03748001F0068DD
:1026C000406835490C39096808443349091F0860D6
:1026D0003148001F0068408848B12F48001F00683B
:1026E0002D4908390968884200E044E0E5D12A48CC
:1026F000001F0068284908390968884209D026481F
:10270000001F0068408820B1002000BF0028FDD0D5
:1027100000BF224800F0F6F907F1100020441E49DE
:1027200008390968884204D9002000BF0028FDD07C
:1027300000BF17F0070F04D0002000BF0028FDD015
:1027400000BF17F0070F04D0002000BF0028FDD005
:1027500000BF00BF00BF00BF0F481438006830B191
:10276000214607F110000C4A143A1268904700BF46
:1027700007F110000DE708480C3800682844456848
:1027800005480068001BA8423FF629AF034800F047
:10279000B9F90020FDE600009C0100206023002024
:1027A000F0B50346CEB2042A15D310F0030F12D1B0
:1027B000044646EA062545EA054504E020C420C44F
:1027C00020C420C4103A102AF8D201E020C4121FFD
:1027D000042AFBD2234601E003F8016B1700A2F1A3
:1027E0000102F9D1F0BD00002DE9F04704460D4685
:1027F00000BFFDF7E5FD8146FFF704FE20B1002094
:1028000000BF0028FDD000BF4846FDF7DDFD00BF3A
:10281000144800EB0417F868FFF7A6FE064616B941
:102820000020BDE8F087347200207072082229462B
:10283000304600F010FA00BF0B48006818B130466F
:1028400009490968884700BFFDF7BAFD804606F1CF
:102850000C01381DFFF741FE4046FDF7B5FD30463F
:10286000DFE70000A80100203802002070B5044610
:1028700024B9002000BF0028FDD000BF207A10F04E
:10288000800F04D0002000BF0028FDD000BF00BF93
:102890000A48006818B1204608490968884700BFFF
:1028A000FDF78EFD054604F10C00FFF74AFE2846B1
:1028B000FDF78AFD2046FFF7C7FC70BD3C020020F3
:1028C00070B5044624B9002000BF0028FDD000BF29
:1028D00000BF0948006818B12046074909688847C1
:1028E00000BFFDF76DFD054604F10C00FFF729FE62
:1028F0002846FDF769FD70BD3C0200202DE9F0413E
:1029000004460D461646104800EB051745F08000BA
:10291000207208223146204600F09DF900BF0B4886
:10292000006818B1204609490968884700BFFDF7CB
:1029300047FD804604F10C01381DFFF7CEFD4046EF
:10294000FDF742FDBDE8F081A8010020380200201B
:10295000014621B9002000BF0028FDD000BF087A41
:1029600010F0800F01D0012070470020FCE700002C
:102970002DE9F041FDF724FD044620480088002899
:1029800036D11F480068FEF731FE471E1D4850F83B
:10299000371014200D1A1C480068854227D01B49A7
:1029A0000F7019480668056000BF144818300068A9
:1029B00028B129463046114A18321268904700BFA4
:1029C00000BF00BF2846FEF737FE1148007830B937
:1029D00005F11C0106F11C00FDF7F9FC07E000BF42
:1029E00000BF05F11C0106F11C00FDF7F0FC00BF63
:1029F0002046FDF7E9FCBDE8F08100004C02002014
:102A000058020020802300205002002054020020A1
:102A10008401002070B5044624B9002000BF0028BE
:102A2000FDD000BFFDF7CCFC0546012084F8340042
:102A300094F835200B4B03EBC20004F114014268FB
:102A4000116042684A604160086000BF00BF00BF7B
:102A50000549A06B09680843034908602846FDF74B
:102A6000B3FC70BD802300205802002070B50446DE
:102A700024B9002000BF0028FDD000BFFDF7A0FC56
:102A8000054600BF00BF04F11400D0E900215160E9
:102A9000D0E9001211604060006000BF94F835106A
:102AA000094A02EBC1000168814201D1012100E025
:102AB000002129B10548A16B0068884303490860DB
:102AC0002846FDF781FC70BD8023002058020020BD
:102AD0002DE9F04104460D4617461E4624B9002054
:102AE00000BF0028FDD000BF2A4601212046FFF785
:102AF00005FF2046FFF7E0FCA78366720020BDE8D3
:102B0000F081000070B5044600BF1248006818B19B
:102B1000204610490968884700BF0025FDF750FC92
:102B2000064600BF00BF04F11400FFF7FAFC28B905
:102B300004F11400FFF77EFC012502E0A08B401C8D
:102B4000A0833046FDF740FC012D01D1FFF710FFB7
:102B5000002070BD480200202DE9F341044624B94D
:102B6000002000BF0028FDD000BF00BF374800682C
:102B700018B1204635490968884700BFFDF720FC99
:102B8000064600BF00BFA08B002806DDA08B401EBC
:102B9000A0833046FDF718FC4DE0019830B930466F
:102BA000FDF712FC6FF00100BDE8FC8100BFFDF7EE
:102BB00007FC074600F09CFA20B9002000BF00285F
:102BC000FDD000BF00BFFDF7FBFB8046FFF71AFCFE
:102BD00020B1002000BF0028FDD000BF4046FDF717
:102BE000F3FB00BF3846FDF7EFFB00BF00F080FAB3
:102BF00005460021296300BF00BF627A294604F11F
:102C00001400FFF723FC019800280BDD00BF00BF74
:102C100001AA002105F14C0000F0A0FB05F14C00D9
:102C200000F0F2FB3046FDF7CFFBFFF7A1FE286B6B
:102C300008B1286BB8E700BF0548006818B1204606
:102C400003490968884700BF0020ADE74002002023
:102C500044020020704770B5A2B104460B4600BF85
:102C600013F8016B04F8016B3EB902E0002504F88B
:102C7000015B551E2A00F9D102E0551E2A00EFD152
:102C800000BF00BF70BD00002DE9F04704460D46AF
:102C9000E01D20F0070725F0070800BFFDF790FBB7
:102CA0008146FFF7AFFB20B1002000BF0028FDD018
:102CB00000BF4846FDF788FB00BFB8F1200F09D9D7
:102CC000A8F12000B84205D3A8EB0700203820491E
:102CD000086001E0BDE8F0871D480C38076000BFC0
:102CE00000BF06684FF4F550308019480068103076
:102CF00070600020B060708015490C3970680968F8
:102D000008441349083908604FF4F55009680880F1
:102D100001200F490839096848800D4800681030C3
:102D20000B490839096848600948006810300849AB
:102D30000839096888600023012206A10748FFF7C7
:102D4000C7FE03480C3800680149091F0860C1E745
:102D50009C01002068656170000000006023002075
:102D60007047000010B500200C49088000BF00BF6C
:102D7000002405E00A4901EBC400FFF7A8FB641C2E
:102D8000202CF7DB1F200749087000200649086047
:102D9000064908600648FFF79AFB10BD4C02002068
:102DA00080230020540200205002002058020020FE
:102DB0005C02002070B508480068FEF717FC451E4D
:102DC000064850F8351014200C1A0548046004F128
:102DD0001C00FDF742FB70BD58020020802300203C
:102DE000500200207047000010B5002405E004499F
:102DF00001EBC400FFF76EFB641C002CF7D010BD84
:102E00006C02002070472DE9FF5F04460D46164610
:102E10001F46DDE90E8921460020FFF7E5FC8246CA
:102E2000BAF1000F03D1002004B0BDE8F09F38468E
:102E3000FFF79AFB8346BBF1000F04D15046FFF722
:102E400015FD0020F0E733462A4621465046CDE9DD
:102E500000B7CDE90289FEF70BFC5046E4E710B558
:102E60000446204600F04AF910BD000010B50120CC
:102E7000214908604FF00000204908854FF001000B
:102E8000888537E01E48006818B901201B4948852D
:102E900006E01B480068012802D100201749488538
:102EA0001648008D01280ED10020164908604FF009
:102EB00001004FF04021C1F86008104988854FF0AB
:102EC000000008850FE00D48008D02280BD101207D
:102ED0000C4908604FF000004FF04021C1F8600835
:102EE000064988850885FEF723F8FDF7F3FF3220B1
:102EF000FFF7B5FFC6E70000604800405803002018
:102F000068480040FC48004010B504E0FEF7F6FDBC
:102F10000220FFF7A4FFF9E770B512480468FDF737
:102F20004FFA05462046FFF7A1FD042084F834003F
:102F300004F14C0000F035FA2046FFF709FD0128A6
:102F400005D1A06F18B92046FFF7BAFC04E004F1E0
:102F500014010548FFF7C8FA2846FDF735FAFFF7D0
:102F600007FD70BD500200205C02002010B507E094
:102F70000448006810B103480068804700F004F876
:102F8000F6E700008001002070B541E000BFFDF7CA
:102F900017FA0646FFF736FA20B1002000BF0028D6
:102FA000FDD000BF3046FDF70FFA00BFFDF708FA6D
:102FB00005461A48FFF7ADFAE0B918480168142031
:102FC0000C1A04F11400D0E900215160D0E900127C
:102FD00011604060006000BFA06F10B12046A16F7B
:102FE00088472046FFF7B4FC012807D12846FDF7A3
:102FF000EBF970BD2846FDF7E7F9FAE72846FDF73B
:10300000E3F9A06AFFF720F92046FFF72FFC00BF85
:103010000248FFF77EFA0028B8D0EAE75C020020F9
:103020001FB520231F22590106488DE80F000023F9
:10303000054A06A1803800F00DF80248803800F0FB
:1030400083F81FBD601F00206D2F00007469646C41
:10305000650000002DE9FF5F04460D4616461F4639
:10306000DDE910ABDDE90E8924B9002000BF00289E
:10307000FDD000BFB8F1000F04D1002000BF002830
:10308000FDD000BF2A4600212046FFF737FC3B4613
:103090003246294620468DE8000FFEF7E9FA04B0D3
:1030A000BDE8F09F70B5044624B9002000BF002899
:1030B000FDD000BF00BF00BF94F83400022804D048
:1030C00000BF00BF4FF0FF3070BDFDF779F9054636
:1030D00004F11400FFF73EFA04F14C0000F024FA6A
:1030E0002846FDF771F92046FFF794FC0020EBE736
:1030F00001480068704700005002002031B5FDF71C
:103100005FF904460F48056825B9002000BF002874
:10311000FDD000BF284600F043F86A46002105F1C3
:103120004C0000F01BF905F14C0000F06DF9204651
:10313000FDF74AF9FFF71CFC286B801C00D12863BF
:10314000002038BD5002002010B5044624B90020EC
:1031500000BF0028FDD000BF94F8340020B100204B
:1031600000BF0028FDD000BF04F13404A0786070D7
:1031700061784FF0010000FA01F06060A4F13404BE
:1031800000BF00BF4FF0020084F834002046FFF774
:1031900089FFFFF7ADFF08B1FFF7EAFB002010BD84
:1031A00070B5044624B9002000BF0028FDD000BF40
:1031B00000BF00BF94F83400012804D000BF00BF56
:1031C0004FF0FF3070BDFDF7FBF80546022084F894
:1031D00034002046FFF74AFC2846FDF7F5F80020AA
:1031E000F0E770B5044625462C0004D1002000BF4E
:1031F0000028FDD000BF95F83400022804D000203C
:1032000000BF0028FDD000BF6FF00100286305F16A
:103210001400FFF79FF92846FFF7FCFBFFF7A8FB18
:1032200070BD000070B5FDF7CBF804461348056883
:1032300095F8340001281CD1D5E90510814218D039
:1032400005F11400FFF786F995F835200C4B03EBD8
:10325000C20105F114004A6810604A684260486083
:10326000016000BF2046FDF7AFF8FFF781FB0020AB
:1032700070BD2046FDF7A8F80020F9E750020020B5
:103280008023002001480068704700007C01002076
:1032900010B50A480068401C08490860FFF728FF7D
:1032A0000446A06C401EA064A06C18B9606CA064B9
:1032B000FFF7B8FF00F004F810BD00007C0100200B
:1032C00070B500BF00BFFFF7DDFF0546FDF778F8DA
:1032D000064635E02048016814200C1AA06A281A16
:1032E0006FF0004188422AD200BF1B4808300068B6
:1032F00020B12046184908310968884700BF204698
:10330000FEF722FAD4E907108847FFF7BBFF05460E
:1033100000BF00BF607A10F0020F0BD0607A10F08F
:10332000010F07D0607A20F001006072204600F0A3
:103330006BF805E0607A20F00100607200E004E0C4
:103340000548FFF7F6F80028C4D000BF3046FDF767
:103350003BF800BF00BF70BD6C02002010B50346F3
:1033600023B9002000BF0028FDD000BF49B10129CA
:1033700004D0022908D0032910D10AE0586A10604D
:103380000CE01068586209E0587A20F00200587288
:1033900004E0587A40F00200587200BF00BF0020DD
:1033A00010BD70B5044624B9002000BF0028FDD030
:1033B00000BFFDF705F805462046FEF7C5F928468B
:1033C000FDF702F82046FFF77BFA002070BD2DE9DB
:1033D000F84304460D4616461F46DDE9088924B920
:1033E000002000BF0028FDD000BF2A46082120464B
:1033F000FFF784FA43463A4631462046CDF800901E
:10340000FEF780F9BDE8F8832DE9F843044624B9B6
:10341000002000BF0028FDD000BF607A10F0010F2F
:1034200003D04FF0FF30BDE8F88300BF3C48006890
:1034300018B120463A490968884700BF6FF000413B
:10344000606A884204D3002000BF0028FDD000BF7E
:10345000FFF718FF616A0844A062FCF7B1FF8046DD
:10346000304E009600252AE019E05DF8252011680D
:10347000142202EBC502881A826AA36AD21A00D10A
:1034800008E0826AA36AD21A6FF000439A4200D21F
:103490000CE000BF5DF8250000684DF825005DF8E0
:1034A000250006EBC50149688842DED100BF2DB179
:1034B0005DF825000830691C4DF821006D1C012DB8
:1034C000D2DB1848001F0068401C1649091F08601D
:1034D0000846076804F114010098FFF70CF802256C
:1034E00012E017F0030F0CD1C5F1010304F114022F
:1034F00002EBC301C5F101025DF82200FEF7FBFFFC
:1035000000E003E0BF086D1C012DEADD00BF607A1A
:1035100040F0010060724046FCF756FF002082E751
:10352000440200206C02002070B5044624B900203B
:1035300000BF0028FDD000BF607A10F0010F02D15B
:103540004FF0FF3070BD00BF0B48006818B1204637
:1035500009490968884700BFFCF732FF0546204645
:10356000FEF7F2F82846FCF72FFF607A20F0010002
:1035700060720020E6E700004802002010B5FEF768
:10358000DFFEFFF767FBFFF72DFCFFF7E9FBFFF717
:103590002BFC08490848FFF777FBFFF7E3FBFEF732
:1035A00031FEFEF70FFEFFF72DFCFFF739FDFFF7A9
:1035B00001FC10BD7F3C00208024002000207047CB
:1035C00070B50246FF24FF2509E012F8010B80EADE
:1035D00005030748C05C80EA04050648C45C08008F
:1035E000A1F10106B1B2F0D145EA042070BD00009E
:1035F00098390000983A000070B504460D4624B191
:1036000001210948FDF7ADFF03E001210648FDF760
:10361000A4FF25B102210448FDF7A3FF03E0022126
:103620000148FDF79AFF70BD0030074010B506480D
:10363000FDF750FF0448FDF7CBFE0020034908705A
:103640000349086010BD0000000005407400002020
:103650007800002010B501200F49087000200F49A4
:10366000086044F620624FF000610D48FDF7FEFE51
:103670000B48FDF7B1FE03212020FDF7C9FC2020F7
:10368000FDF7BAFC00BF0648006840F080400449DE
:10369000086000BF10BD000074000020780000200A
:1036A000000005400020704701460020054A1278BE
:1036B0003AB1044A521E12780A700022014B1A7065
:1036C000012070476D000020002002490870012091
:1036D000704700006D00002001460120024A107072
:1036E000501E0170012070476D0000200146024805
:1036F0000068087001207047003007402DE9F04154
:1037000005460C4616461F462448FDF7C9F9002217
:103710004FF040712148FDF73DFA4FF08040806C3A
:1037200040F408104FF080418864012205211C48B4
:10373000FDF78FFB002204211948FDF78AFB214683
:103740001848FDF713FF1748FDF702FFFDF717FBB9
:1037500001211448FDF705FF00BF6B20002805DAA2
:103760000220000110490722885404E002200001D1
:103770000E496B22885400BF00BF0B2101208840F6
:103780006B2149094FF0E02202EB8101C1F80001F1
:1037900000BFFDF7F6FA0120BDE8F081133D805728
:1037A000C04000400030074018ED00E000E400E0B9
:1037B00001460248016001207047000000300740C8
:1037C00070B504460025104804801048FDF768F9DC
:1037D00000224FF400710D48FDF7DCF944F6206239
:1037E0004FF000610A48FDF741FE0948FDF7F4FD7E
:1037F00003212020FDF70CFC2020FDF7FDFB0448F1
:10380000FDF768FE012070BD7C0000200200805E94
:103810000000054038B500246846FFF767FF1E48E2
:10382000007830B101280AD002281BD0032830D1FB
:1038300002E0FFF70FFF2CE0FFF70CFF29E000206C
:103840001549093108809DF800200888411C124B59
:103850000933198011490A5402200F490870FFF7F3
:10386000F9FE16E00C4809300088FF280BDC9DF8B3
:103870000020094909310888411C074B0933198088
:1038800006490A5402E0032003490870FFF7E2FEEC
:1038900000BF00BF204638BD9D000020C01D002095
:1038A00010B500240D48007820B1022807D0032865
:1038B0000BD109E00020FFF70FFF044606E00120CE
:1038C000FFF70AFF044601E000E000BF00BFFFF77A
:1038D000ADFE012001490870204610BD9D0000206A
:1038E00010B500241848007810B1012828D104E050
:1038F00000210120FFF780FE22E0134808300088F5
:1039000090B11149091D09680878FFF751FF0E4869
:10391000001D0068401C0C49091D0860081D008836
:10392000401E091D08800AE00320FFF7D5FE04466B
:1039300000210120FFF760FE00200349087000BF4E
:1039400000BF204610BD00009C0000204FF04070DA
:10395000E1EE100A70470000001BB70000000000F5
:103960000080510100805101001BB70000000000E1
:103970000080510100805101001BB7000080000051
:103980000000000000000000000000001027000000
:10399000000000000080510100C1814001C0804151
:1039A00001C0804100C1814001C0804100C181400F
:1039B00000C1814001C0804101C0804100C18140FF
:1039C00000C1814001C0804100C1814001C08041EF
:1039D00001C0804100C1814001C0804100C18140DF
:1039E00000C1814001C0804100C1814001C08041CF
:1039F00001C0804100C1814000C1814001C08041BF
:103A000001C0804100C1814001C0804100C18140AE
:103A100000C1814001C0804101C0804100C181409E
:103A200000C1814001C0804100C1814001C080418E
:103A300001C0804100C1814000C1814001C080417E
:103A400001C0804100C1814001C0804100C181406E
:103A500000C1814001C0804100C1814001C080415E
:103A600001C0804100C1814001C0804100C181404E
:103A700000C1814001C0804101C0804100C181403E
:103A800000C1814001C0804100C1814001C080412E
:103A900001C0804100C1814000C0C101C30302C216
:103AA000C60607C705C5C404CC0C0DCD0FCFCE0E7E
:103AB0000ACACB0BC90908C8D81819D91BDBDA1AEE
:103AC0001EDEDF1FDD1D1CDC14D4D515D71716D65E
:103AD000D21213D311D1D010F03031F133F3F232CE
:103AE00036F6F737F53534F43CFCFD3DFF3F3EFE3E
:103AF000FA3A3BFB39F9F83828E8E929EB2B2AEAAE
:103B0000EE2E2FEF2DEDEC2CE42425E527E7E6261D
:103B100022E2E323E12120E0A06061A163A3A2628D
:103B200066A6A767A56564A46CACAD6DAF6F6EAEFD
:103B3000AA6A6BAB69A9A86878B8B979BB7B7ABA6D
:103B4000BE7E7FBF7DBDBC7CB47475B577B7B676DD
:103B500072B2B373B17170B050909151935352924D
:103B600096565797559594549C5C5D9D5F9F9E5EBD
:103B70005A9A9B5B99595898884849894B8B8A4A2D
:103B80004E8E8F4F8D4D4C8C44848545874746869D
:103B900082424383418180400000211042206330F3
:103BA0008440A550C660E770088129914AA16BB195
:103BB0008CC1ADD1CEE1EFF131121002733252223D
:103BC000B5529442F772D662399318837BB35AA3E5
:103BD000BDD39CC3FFF3DEE362244334200401140D
:103BE000E664C774A44485546AA54BB52885099535
:103BF000EEE5CFF5ACC58DD55336722611163006DD
:103C0000D776F6669556B4465BB77AA71997388784
:103C1000DFF7FEE79DD7BCC7C448E5588668A7789C
:103C20004008611802282338CCC9EDD98EE9AFF9D4
:103C3000488969990AA92BB9F55AD44AB77A966A7C
:103C4000711A500A333A122AFDDBDCCBBFFB9EEB24
:103C5000799B588B3BBB1AABA66C877CE44CC55C4C
:103C6000222C033C600C411CAEED8FFDECCDCDDD74
:103C70002AAD0BBD688D499D977EB66ED55EF44E1C
:103C8000133E322E511E700E9FFFBEEFDDDFFCCFC4
:103C90001BBF3AAF599F788F8891A981CAB1EBA118
:103CA0000CD12DC14EF16FE18010A100C230E32094
:103CB0000450254046706760B9839893FBA3DAB33C
:103CC0003DC31CD37FE35EF3B1029012F322D232E4
:103CD0003542145277625672EAB5CBA5A89589850C
:103CE0006EF54FE52CD50DC5E234C324A014810434
:103CF0006674476424540544DBA7FAB79987B897DC
:103D00005FE77EF71DC73CD7D326F2369106B01683
:103D100057667676154634564CD96DC90EF92FE99B
:103D2000C899E9898AB9ABA94458654806782768D3
:103D3000C018E1088238A3287DCB5CDB3FEB1EFB7B
:103D4000F98BD89BBBAB9ABB754A545A376A167A23
:103D5000F10AD01AB32A923A2EFD0FED6CDD4DCD4B
:103D6000AABD8BADE89DC98D267C076C645C454C73
:103D7000A23C832CE01CC10C1FEF3EFF5DCF7CDF1B
:103D80009BAFBABFD98FF89F176E367E554E745EC3
:103D9000932EB23ED10EF01E000001000200010081
:103DA0000300010002000100040001000200010004
:103DB00003000100020001000500010002000100F3
:103DC00003000100020001000400010002000100E4
:103DD00003000100020001000600010002000100D2
:103DE00003000100020001000400010002000100C4
:103DF00003000100020001000500010002000100B3
:103E000003000100020001000400010002000100A3
:103E10000300010002000100070001000200010090
:103E20000300010002000100040001000200010083
:103E30000300010002000100050001000200010072
:103E40000300010002000100040001000200010063
:103E50000300010002000100060001000200010051
:103E60000300010002000100040001000200010043
:103E70000300010002000100050001000200010032
:103E80000300010002000100040001000200010023
:103E9000030001000200010030313233343536377F
:103EA00038396162636465660030313233343536E7
:103EB000373839414243444546000000DC3E0000AB
:103EC0000000002090020000B4020000643F0000E7
:103ED00090020020504C00001003000001114580AA
:103EE0005101161B1BB70C610B101027240146DA79
:103EF0000102012232023204239D17321123C51917
:103F00003203235D1832061AED10191B111AE7103F
:103F100001D013AC012A2004328032011ABC0C29D2
:103F200004322032021ACC0C2904322432031ADC67
:103F30000C2904292032041AEC0C290432303205F1
:103F40001AFC0C290432343206130C022A200432E3
:103F50003832071A1C0C2904324032081A2C0C394A
:043F600004015B00FD
:04000005000002797C
:00000001FF
